:020000020000FC
:10000000239A249A259A269A279A47EC40937A00B5
:1000100040E640937C00409A0F931F9307E610E060
:100020000093C4001093C50008E10093C10006E0EE
:100030000093C2001F910F9103EC04BD01E005BDC8
:1000400040917A00406440937A0040917A0046FDE6
:10005000FCCF40917800509179002F938F939F931C
:100060002AE08EE39CE90197F1F72A95D1F7000089
:100070009F918F912F9100E0E0E0F1E01F930091BC
:10008000C00007FF06C00091C6000D3021F00193AB
:10009000FACF00E001C001E01F910030A1F00E9402
:1000A00066000E946300013089F0023099F003304D
:1000B000A9F0043069F0053079F0063089F0073096
:1000C00089F0083089F00E946600BACF5B9A0895E3
:1000D0005B9808955C9A08955C9808955D9A0895D8
:1000E0005D9808955F9808955F9A08950E9466004C
:1000F000ECE6F1E00F931F930591003039F0109179
:10010000C00015FFFCCF0093C600F6CF1F910F91E2
:100110002F938F939F9322E38EE39CE90197F1F74E
:100120002A95D1F700009F918F912F9108950F93F9
:100130001F93102F02E0019F002D112D07BD1F916D
:100140000F912F938F939F9322E38EE39CE9019766
:10015000F1F72A95D1F700009F918F912F91089583
:100160004461792054696D65200D0A004E69676805
:0A017000742054696D65200D0A002B
:00000001FF
