:020000020000FC
:10000000239A249A259A269A279A0E946B000E9486
:1000100056002F938F939F9324E68EE39CE90197DC
:10002000F1F72A95D1F700009F918F912F910E94AF
:1000300046000E944A000E944E000E9452002F93E8
:100040008F939F9324E68EE39CE90197F1F72A951D
:10005000D1F700009F918F912F910E9448000E943C
:100060004C000E9450000E9454002F938F939F9346
:1000700024E68EE39CE90197F1F72A95D1F7000079
:100080009F918F912F910E947200C1CF5B9A08952A
:100090005B9808955C9A08955C9808955D9A089518
:1000A0005D9808955F9808955F9A089507EC00930E
:1000B0007A0000E600937C00409A00917A00006488
:1000C00000937A0000917A0006FDFCCF0091780041
:1000D00010917900089520E027BD23EC24BD21E094
:1000E00025BD089526EE27BD2F938F939F9322E37E
:1000F0008EE39CE90197F1F72A95D1F700009F91D3
:060100008F912F9108957C
:00000001FF
